{
  "contractName": "NVCryptToken",
  "abi": [
    {
      "constant": true,
      "inputs": [],
      "name": "totalSupply",
      "outputs": [
        {
          "name": "",
          "type": "uint256"
        }
      ],
      "payable": false,
      "stateMutability": "view",
      "type": "function"
    },
    {
      "inputs": [],
      "payable": false,
      "stateMutability": "nonpayable",
      "type": "constructor"
    }
  ],
  "bytecode": "0x608060405234801561001057600080fd5b5064174876e800600081905550609e8061002b6000396000f300608060405260043610603f576000357c0100000000000000000000000000000000000000000000000000000000900463ffffffff16806318160ddd146044575b600080fd5b348015604f57600080fd5b506056606c565b6040518082815260200191505060405180910390f35b600054815600a165627a7a72305820cdb73e1b3b29643ae15321bcea67f356b744e70f746bd49a548c8c8d8a76c7a20029",
  "source": "pragma solidity ^0.4.2;\n\ncontract NVCryptToken {\n\tuint256 public totalSupply;\n\n\tfunction NVCryptToken() public {\n\t\ttotalSupply = 100000000000; // 100 billion tokens\n\t}\n}",
  "sourcePath": "/Users/williamwillems/code/nvcrypt-token-sale/contracts/NVCryptToken.sol",
  "compiler": {
    "name": "solc",
    "version": "0.4.24+commit.e67f0147.Emscripten.clang"
  },
  "schemaVersion": "2.0.1",
  "updatedAt": "2018-12-16T21:21:57.604Z"
}